:0A09D500C0F9A4B0999282F8809056
:0C09C800020A0000020C000002080000FF
:10096700758911758C4C758AD0758D4C758BD0D265
:10097700AFD2A9D2ABD28CD28EAF09AE0812088CF7
:0209870080F7F7
:04088C00AB07AA0606
:100890007C007D0A1208E38F828E83AE02AF037C58
:1008A000007D0A1208E38C0E8D0FAE83AF8274D5E3
:1008B0002FF58274093EF583E493F580C2A07F0191
:1008C0007E00120989D2A074D5250FF582740935EE
:1008D0000EF583E493F580C2A17F017E00120989A1
:0208E000D2A1A3
:0108E20022F3
:10098900E4FDFCC3ED9FEC9E5015E4FBFA0BBB00A4
:0F099900010AEB646E4A70F50DBD00010C80E49D
:0109A800222C
:03000B000209A93E
:1009A900C0E0758C4C758AD0050BE50B7002050A01
:0F09B9006404450A7006F50AF50BB290D0E032DF
:03001B000209389F
:10093800C0E0758D4C758BD0050DE50D7002050C6A
:100948006405450C7016F50CF50D0509E5097002EE
:0F0958000508643C45087004F508F509D0E03245
:03000000020800F3
:0C080000787FE4F6D8FD75810F020847F0
:1008E300BC000BBE0029EF8DF084FFADF022E4CCF9
:1008F300F875F008EF2FFFEE33FEEC33FCEE9DECC2
:10090300984005FCEE9DFE0FD5F0E9E4CEFD22ED07
:10091300F8F5F0EE8420D21CFEADF075F008EF2F51
:10092300FFED33FD4007985006D5F0F222C398FD42
:050933000FD5F0EA22DF
:10080C00020967E493A3F8E493A34003F68001F292
:10081C0008DFF48029E493A3F85407240CC8C333ED
:10082C00C4540F4420C8834004F456800146F6DFBC
:10083C00E4800B01020408102040809009C8E47E7B
:10084C00019360BCA3FF543F30E509541FFEE493B1
:10085C00A360010ECF54C025E060A840B8E493A378
:10086C00FAE493A3F8E493A3C8C582C8CAC583CAA3
:10087C00F0A3C8C582C8CAC583CADFE9DEE780BE5B
:0109D4000022
:00000001FF
